S00B000073616D2E73726563D8
S113000045C0000062C00000DDC000005AC100000D
S11300101DC2000059C0000057C0000055C00000B8
S113002053C0000051C000004FC000004DC000008C
S11300304BC0000049C0000047C0000045C000009C
S113004043C0000041C000003FC000003DC00000AC
S11300503BC0000039C0000037C0000035C00000BC
S113006033C0000031C000002FC000002DC00000CC
S11300702BC0000029C00000D6C4000025C0000029
S113008023C0000021C000001FC0000011241FBEB7
S1130090CFEFD0E1DEBFCDBF13E0A0E0B1E0E0E5FB
S11300A0FAE100E00BBF02C007900D92A239B1073C
S11300B0D9F727E0A2E9B3E001C01D92A13BB20742
S11300C0E1F7E7D30C94260D9BCF1F920F920FB646
S11300D00F9211240BB60F922F933F934F935F937C
S11300E06F937F938F939F93AF93BF93EF93FF93FC
S11300F080919403909195030097B9F480919203B1
S113010090919303892B09F04AC0D5D6C3D4449760
S113011031F48CE190E0B9D4BDD453D640C084E12D
S113012090E0B3D4B7D44DD63AC0019709F037C0A4
S113013080919203909193030097D1F4ABD4BBD6F2
S1130140A9D4449731F48CE190E09FD4A3D439D658
S113015026C0A0D44C9731F484E290E096D49AD48B
S113016030D61DC084E190E090D494D42AD617C030
S11301700197A9F4809100019091010181319105C9
S11301803CF00197909301018093000188D407C04B
S113019080E290E0909301018093000180D4FF916C
S11301A0EF91BF91AF919F918F917F916F915F91EB
S11301B04F913F912F910F900BBE0F900FBE0F9058
S11301C01F9018951F920F920FB60F9211240BB621
S11301D00F922F933F934F935F936F937F938F93DC
S11301E09F93AF93BF93EF93FF9380919403909168
S11301F095030097C9F48091920390919303892BFE
S113020009F04CC007D646D456D644D4449731F4AA
S11302108CE190E03AD43ED4D4D540C084E190E05F
S113022034D438D4CED53AC0019709F037C0809180
S11302309203909193030097D1F42CD43CD62AD402
S1130240449731F484E290E020D424D4BAD526C073
S113025021D44C9731F484E190E017D41BD4B1D568
S11302601DC08CE190E011D415D4ABD517C0019713
S1130270A9F48091000190910101803291053CF430
S11302800196909301018093000109D407C080E195
S113029090E0909301018093000101D4FF91EF91CC
S11302A0BF91AF919F918F917F916F915F914F918A
S11302B03F912F910F900BBE0F900FBE0F901F9088
S11302C018951F920F920FB60F9211240BB60F922E
S11302D02F933F934F935F936F937F938F939F934A
S11302E0AF93BF93EF93FF93809194039091950301
S11302F0892B91F5CFD34497C1F4809194039091C5
S113030095030196909395038093940380919203AF
S11303109091930301969093930380939203809119
S1130320000190910101E5D47EC0809194039091E5
S11303309503892B89F4AED34C9771F4809194037F
S1130340909195030196909395038093940384E18F
S113035090E09BD33CD567C0809194039091950322
S1130360019709F05CC096D3449781F4809192037D
S113037090919303892B51F480919C0390919D0358
S11303809093A00380939F03FED34DC08091940368
S113039090919503019709F042C07CD34C9781F466
S11303A08091920390919303892B51F480910E01D3
S11303B090910F019093A00380939F03E4D333C0E3
S11303C08091940390919503019749F563D38497A1
S11303D081F48091920390919303892B51F480913D
S11303E00C0190910D019093A00380939F03CBD3B4
S11303F01AC08091940390919503019781F48091A0
S1130400920390919303019751F48091000190918C
S11304100101909307018093060156D304C0109202
S1130420950310929403FF91EF91BF91AF919F9127
S11304308F917F916F915F914F913F912F910F9089
S11304400BBE0F900FBE0F901F9018951F920F9226
S11304500FB60F9211240BB60F922F933F934F9325
S11304605F936F937F938F939F93AF93BF93EF9318
S1130470FF9360E070E080E190E0BAD3CBD41092B7
S113048095031092940384E190E0FFD210929303B9
S113049010929203FF91EF91BF91AF919F918F9131
S11304A07F916F915F914F913F912F910F900BBE70
S11304B00F900FBE0F901F9018956130710509F0D1
S11304C04DC0009729F580E490E056E043E039E020
S11304D02CE058BBE7EAF1E63197F1F700C00000E1
S11304E048BBE7EAF1E63197F1F700C0000038BBFA
S11304F0E7EAF1E63197F1F700C0000028BBE7EA2C
S1130500F1E63197F1F700C00000019711F7089563
S1130510019721F580E490E056E04CE039E023E0D7
S113052058BBE7EAF1E63197F1F700C0000048BB99
S1130530E7EAF1E63197F1F700C0000038BBE7EADB
S1130540F1E63197F1F700C0000028BBE7EAF1E6D5
S11305503197F1F700C00000019711F70895613059
S1130560710539F4009711F4A8980895019709F4D6
S1130570A89A089560E070E08091960390919703A3
S11305809CDF60E070E08091980390919903E7CF3D
S11305900895CF93DF936091960370919703C09170
S11305A09803D091990380919A0390919B0390931F
S11305B09703809396039093990380939803C82795
S11305C0D9276827792779DFBE0180919803909114
S11305D09903C5DFDF91CF910895CF93DF932091E5
S11305E0960330919703C0919803D0919903809119
S11305F004019091050140910601509107014817AB
S113060059070CF044C04091020150910301BC0110
S113061061507109461757078CF480910801909135
S11306200901909397038093960380919A03909184
S11306309B03909399038093980314C001968417A5
S1130640950784F480919A0390919B039093970368
S113065080939603809108019091090190939903E6
S11306608093980380919603909197034091980307
S113067050919903C427D527BC01622773271DDF36
S1130680BE01809198039091990369DF01C081DFD5
S1130690DF91CF910895CF93DF936091960370918A
S11306A097032091980330919903C0919A03D091B4
S11306B09B03D0939903C093980380910401909174
S11306C0050140910601509107014817590754F557
S11306D04091020150910301FC0131974E175F07CD
S11306E04CF48091080190910901909397038093B1
S11306F0960308C001964817590724F0D09397032E
S1130700C09396038091960390919703C227D327B1
S113071068277927D2DEBE018091980390919903CE
S11307201EDF01C036DFDF91CF910895CF93DF93B1
S113073060919603709197032091980330919903E7
S113074080919A0390919B039093970380939603CF
S1130750E0910601F09107014091040150910501D7
S1130760E417F507A4F4C0910801D0910901D093CE
S11307709903C0939803C227D327682779279DDE5E
S1130780BE018091980390919903E9DE01C001DFD5
S1130790DF91CF9108959EEB980F913120F490E072
S11307A0C29792D163C0813261F480919A0390918F
S11307B09B03909399038093980361E070E0CFDEEC
S11307C055C0823261F4809108019091090190939F
S11307D099038093980361E070E0C1DE47C08332DF
S11307E061F480919A0390919B0390939703809373
S11307F0960361E070E061DE39C0843261F4809177
S1130800080190910901909397038093960361E006
S113081070E053DE2BC0853249F480919C039091A3
S11308209D039093A00380939F0320C0863249F4D4
S113083080910E0190910F019093A00380939F03E8
S113084015C0873249F480910C0190910D01909369
S1130850A00380939F030AC0883241F480910A0167
S113086090910B019093A00380939F0380919F0329
S11308709091A00388C108951092980080E6809317
S113088099008DE980939A008EE080939D0078947E
S1130890089580919C0390919D039093A00380936D
S11308A09F038FEF87BB8ABB82B984BB1092610020
S11308B011BA6AD457D4E0DF8FE089BF82E0809315
S11308C06A00789487E886B980EE87B9A3D28091CC
S11308D09F039091A00357D1809106019091070145
S11308E0F3D071D3C1EAD3E00F2EFFE9AF2EF3E0CA
S11308F0BF2EF02D0F2EF8E9CF2EF3E0DF2EF02DD2
S11309000F2EF6E9EF2EF3E0FF2EF02D0AE010E0B3
S1130910389A369A349BFECF85B190E090930501C6
S11309208093040185B190E0EDD03898399A369AD5
S1130930349BFECF85B190E0909303018093020134
S113094085B190E07CD3399880919F039091A00366
S113095020919C0330919D038217930711F43DDE8F
S11309601AC020910E0130910F018217930711F4E0
S113097092DE11C020910C0130910D018217930772
S113098011F4D4DE08C020910A0130910B018217C2
S1130990930709F4EFDDF5018081805D8883F6011A
S11309A08081805D8983F7018081805D8A83809165
S11309B0060190910701B801EFD7605D6B83805DFC
S11309C08C838091040190910501B801E5D7605DA5
S11309D06D83805D8E838091020190910301B80143
S11309E0DBD7605D6F83805D8887198691CFEBE9E3
S11309F0F0E0908195FFFDCF80939C0089EF90E01B
S1130A000197F1F700C000000895CF93DF93EC0144
S1130A108881882329F02196EADF89918111FCCF0E
S1130A20DF91CF9108951F920F920FB60F92112468
S1130A300BB60F922F933F934F935F936F937F93D4
S1130A408F939F93AF93BF93EF93FF9380919C00F9
S1130A5080939E03893221F481EA93E0D6DF02C0B9
S1130A6090E099DEFF91EF91BF91AF919F918F91AB
S1130A707F916F915F914F913F912F910F900BBE9A
S1130A800F900FBE0F901F90189590931B018093A9
S1130A901A01089580911A0190911B010895CF9332
S1130AA0DF9300D0CDB7DEB74AE0BE016F5F7F4F62
S1130AB09AD7AE014F5F5F4F62E083E0B1D30F90EE
S1130AC00F90DF91CF910895CF93DF9300D0CDB7EE
S1130AD0DEB74AE0BE016F5F7F4F85D7AE014F5F3F
S1130AE05F4F6FE085E09CD341E06CE689E20CD572
S1130AF047E053E062E185E093D30F900F90DF91DC
S1130B00CF9108950F931F93CF93DF9300D01F923B
S1130B10CDB7DEB78C014AE0BE016F5F7F4F63D76C
S1130B20043611058CF40A3011053CF0AE014F5F18
S1130B305F4F6FE080E074D30CC0AE014F5F5F4F36
S1130B4060E180E06DD305C049E053E06FE080E0F0
S1130B5067D30F900F900F90DF91CF911F910F915A
S1130B600895CF93DF93D8E109C06C2F8D2FE4D380
S1130B70CF5FCF37D1F7DF5FD03211F0CAE5F5CFC1
S1130B80DF91CF910895CF93DF93EC01EADFCC0F8F
S1130B90DD1FC05FDE4F488159816FE083E040D3A1
S1130BA0DF91CF9108951F93CF93DF93D0E010E0AE
S1130BB009C06C2F8D2FC0D3CF5FC735D1F7DF5F4E
S1130BC0D83011F0C12FF5CFDF91CF911F91089547
S1130BD0CF93DF93EC01E7DFCC0FDD1FCA5DDE4F5F
S1130BE04881598160E080E01BD3DF91CF91089563
S1130BF0FF920F931F93CF93DF93D82F08E1080F31
S1130C00F62E17E5160F09C06C2F8D2F95D3CF5FE5
S1130C10C113FACFDF5FD01711F0CF2DF5CFDF91DD
S1130C20CF911F910F91FF900895AF92BF92CF92F1
S1130C30DF92EF92FF920F931F93CF93DF93E82EEF
S1130C405B01C12CD12CE501CC19DD0985010C0D0A
S1130C501D1D0C171D074CF0FC2CFE0C6C2F8F2D4A
S1130C600BD321960C171D07CCF78FEFC81AD80A9F
S1130C7084E0C816D10439F7DF91CF911F910F9109
S1130C80FF90EF90DF90CF90BF90AF900895AF9218
S1130C90BF92CF92DF92EF92FF920F931F93CF9365
S1130CA0DF93E82E5B01C12CD12CE501CC19DD09C1
S1130CB085010C0D1D1D0C171D074CF0FE2CFC1896
S1130CC06C2F8F2DD9D221960C171D07CCF78FEFDF
S1130CD0C81AD80A84E0C816D10439F7DF91CF9135
S1130CE01F910F91FF90EF90DF90CF90BF90AF9046
S1130CF008950F931F93CF93DF9300D0CDB7DEB742
S1130D008C0181E090E064DF60E070E080E190E0DD
S1130D106FDF6BE070E084E190E087DF6BE070E010
S1130D2082E290E0B4DF4AE0BE016F5F7F4FC8010A
S1130D305AD6AE014F5F5F4F62E083E071D241E06B
S1130D406FE189E1E1D347E053E065E083E068D2F5
S1130D500F900F90DF91CF911F910F910895AF9253
S1130D60BF92CF92DF92EF92FF920F931F93CF9394
S1130D70DF935C01E62EC12CD12CE501CC19DD09F1
S1130D8085010C0D1D1D0C171D074CF0FE2CFC18C5
S1130D906F2D8C2F71D221960C171D07CCF78FEF76
S1130DA0C81AD80A84E0C816D10439F7DF91CF9164
S1130DB01F910F91FF90EF90DF90CF90BF90AF9075
S1130DC008956091180170911901C9CF0895CF93C6
S1130DD0DF9382E090E0FCDE60E070E080E190E090
S1130DE007DFCCE1D1E04881598161E082E018D28B
S1130DF04A815B8161E083E013D24C815D8161E0D3
S1130E0084E00ED280911A0190911B01DADFDF9108
S1130E10CF910895CF93DF9380E090E0D9DE84E111
S1130E2090E090931B0180931A01C2E2D1E04881C3
S1130E30598161E082E0F4D14A815B8161E083E021
S1130E40EFD180911A0190911B01BBDFDF91CF910B
S1130E500895AF92BF92CF92DF92EF92FF920F93D9
S1130E601F93CF93DF935C01E62EC12CD12CE501B7
S1130E70CC19DD0985010C0D1D1D0C171D074CF047
S1130E80FE2CFC186F2D8C2F57D221960C171D07A2
S1130E90CCF78FEFC81AD80A84E0C816D10439F702
S1130EA0DF91CF911F910F91FF90EF90DF90CF9042
S1130EB0BF90AF9008956091180170911901C9CF46
S1130EC00895AF92BF92CF92DF92EF92FF920F9369
S1130ED01F93CF93DF935C01E62EC12CD12CE50147
S1130EE0CC19DD0985010C0D1D1D0C171D074CF0D7
S1130EF0FC2CFE0C6F2D8C2FBFD121960C171D07D7
S1130F00CCF78FEFC81AD80A84E0C816D10439F791
S1130F10DF91CF911F910F91FF90EF90DF90CF90D1
S1130F20BF90AF9008957F928F929F92AF92BF929D
S1130F30CF92DF92EF92FF920F931F93CF93DF93A1
S1130F406B01782EE12CF12C5B0182E0A81AB10828
S1130F508B010D5F1F4F46018E189F08E701CC0DD2
S1130F60DD1DC815D9054CF0682D872D85D18FEF6F
S1130F70881A980AC815D905BCF7E501A016B10668
S1130F8064F40F2EF3E09F2EF02D970C6C2F892D17
S1130F9073D12196C017D107C9F78FEFE81AF80A61
S1130FA0739484E0E816F104B1F6DF91CF911F91B8
S1130FB00F91FF90EF90DF90CF90BF90AF909F90F4
S1130FC08F907F90089528E546E368E580E014D289
S1130FD02FE749E060E089E00FD22FE746E360E0C5
S1130FE086E30AD241E06CE681E08ED247E053E02A
S1130FF062E180E015D16AE770E080E090E093DF81
S11310004BE053E06FE082E00BD165E070E087E3F2
S113101090E00BDE65E070E08FE390E038DE60E5A1
S113102070E08BE390E04DDF41E153E061E087E065
S1131030F7D04CE153E06EE087E0F2C008950F93DF
S11310401F93CF93DF9300D01F92CDB7DEB78C01EF
S11310504AE0BE016F5F7F4FC6D404361105DCF44D
S11310600A30110564F0AE014F5F5F4F60E085E028
S1131070D7D041E253E062E085E0D2D011C0AE01A6
S11310804F5F5F4F61E085E0CBD041E253E062E027
S113109085E0C6D005C049E053E060E085E0C0D0FB
S11310A00F900F900F90DF91CF911F910F910895A2
S11310B01D9A91E39A95F1F700001C981E981F9AC7
S11310C08BBB81E38A95F1F700001D9808951D9A62
S11310D091E39A95F1F700001C981E9A1F988BBB18
S11310E081E38A95F1F700001D9808951D9A91E314
S11310F09A95F1F700001C981E9A1F9A8BBB81E306
S11311008A95F1F700001D9808951D9A91E39A9528
S1131110F1F700001C9A1E981F9A8BBB81E38A95F5
S1131120F1F700001D9808951D9A91E39A95F1F73F
S113113000001C9A1E9A1F988BBB81E38A95F1F7D5
S113114000001D9808951D9A91E39A95F1F7000007
S11311501C9A1E9A1F9A8BBB81E38A95F1F70000B3
S11311601D980895CF93DF93D8EB8D2FBFDF80E4D4
S1131170BDDFC0E480E0E7DFC150E1F7DF5FD03CD2
S1131180A1F7DF91CF9108958FE3B0DF80ECAEDF5C
S113119088EBACDF80E4AACF08958093AD0360931D
S11311A0B0078854A3DF8091B0078A3038F4982FB1
S11311B0990F890F880F8C5B7BCF089590E00A9775
S11311C0982F990F890F880F805C81CF08951F9302
S11311D0CF93DF9390E0EC01CC0FDD1FCC0FDD1F2C
S11311E08C0F9D1FEC01C457DF4F15E08091B007B1
S11311F08A3018F4888189DF02C0888195DF115014
S113120021961111F3CF8091B0078A3018F480E051
S11312107CDF02C080E088DFDF91CF911F910895C9
S1131220CF93DF93EA018093AD036093B007B5DFFA
S11312308881882381F08091B0078A3011F480E49A
S113124046DF8991C4DF8091B0078F5F8093B00738
S113125088818111F0CFDF91CF910895CF93C62F6C
S1131260885444DFC03420F480E48C0F21DF02C0B2
S11312708C2F2DDFCF910895EF92FF920F931F9340
S1131280CF93803408F052C066230CF44FC0282F4B
S1131290269526952695982F977071F0913071F0C8
S11312A0923071F0933071F0943071F0953071F0A8
S11312B0963071F090E80DC091E00BC092E009C047
S11312C094E007C098E005C090E103C090E201C03B
S11312D090E4C62FE62EF12C022F10E0F70180E8EF
S11312E0289FE00DF11D1124E055FC4F8081892BCE
S11312F08083822FB3DFC03468F4F801F695FE2FA3
S1131300EE27F795E795EE0DFF1DE055FC4F808124
S1131310FCDE0CC0F801F695FE2FEE27F795E79555
S1131320EE0DFF1DE055FC4F8081FEDECF911F9135
S11313300F91FF90EF900895EF92FF920F931F93F8
S1131340CF93803408F052C066230CF44FC0282F8A
S1131350269526952695982F977071F0913071F007
S1131360923071F0933071F0943071F0953071F0E7
S1131370963071F09FE70DC09EEF0BC09DEF09C042
S11313809BEF07C097EF05C09FEE03C09FED01C020
S11313909FEBC62FE62EF12C022F10E0F70180E818
S11313A0289FE00DF11D1124E055FC4F8081892315
S11313B08083822F53DFC03468F4F801F695FE2F42
S11313C0EE27F795E795EE0DFF1DE055FC4F808164
S11313D09CDE0CC0F801F695FE2FEE27F795E795F5
S11313E0EE0DFF1DE055FC4F80819EDECF911F91D5
S11313F00F91FF90EF9008958F929F92AF92BF92BA
S1131400CF92DF92EF92FF920F931F93CF93DF93CC
S1131410621709F447C0621718F570E0022F10E054
S1131420061717070CF463C0C82FD0E0C42ED12CC4
S1131430CC1ADD0A4B01E12CF12C5801A61AB70A8B
S1131440C701B501A9D2862F682D8C0F15DF8FEF48
S1131450881A980AEC0CFD1C081519058CF747C06E
S113146070E0022F10E0601771070CF440C0C82F21
S1131470D0E05E01A41AB1084B01E12CF12C680103
S1131480C61AD70AC701B60187D2862F682D8C0FDA
S1131490F3DE81E0881A9108EA0CFB1C80169106A1
S11314A08CF725C0841711F1841780F4C82FD0E07D
S11314B0E42EF12CEC16FD06D4F0162F612F8C2FA0
S11314C0DBDE2196EC16FD06CCF711C0C82FD0E068
S11314D0E42EF12CCE15DF0554F0162F612F8C2F3E
S11314E0CBDE2197CE15DF05CCF701C0C5DEDF9139
S11314F0CF911F910F91FF90EF90DF90CF90BF900D
S1131500AF909F908F9008952F923F924F925F9249
S11315106F927F928F929F92AF92BF92CF92DF92FF
S1131520EF92FF920F931F93CF93DF93CDB7DEB764
S113153027970FB6F894DEBF0FBECDBF8D83E62E7E
S1131540F12C242F30E03C832B838901000F111FE1
S1131550020F131FC80195958795959587959A83D2
S11315608983F701E81BF90BFF83EE836C01CE0C32
S1131570DF1CCE16DF060CF439C0229F3001239FF6
S1131580700C700C11248C012701FD812F2E8E818B
S11315909F8184199509089F4001099F900C189F09
S11315A0900C1124860C971C092C000CAA08BB086B
S11315B0C501B4010ED19DD120E030E040E05FE3ED
S11315C076D0D9D0A62E6E81822D8A0D55DE6E81FD
S11315D0822D8A1951DE2E813F812F5F3F4F3F8339
S11315E02E8301501109C216D3068CF63D81C32EF9
S11315F0D12C160189819A81281A390AC80ED91E5C
S1131600C214D3040CF439C0EB81FC81EE9F300189
S1131610EF9F700C700C11248C01432E512CC101CE
S113162084199509089F4001099F900C189F900CFC
S11316301124860C971C092C000CAA08BB08C501B0
S1131640B401C7D056D120E030E040E05FE32FD0B2
S113165092D0A62EB12CB7016A0D7B1D822D0CDE13
S1131660B7016A197B09822D07DEFFEF2F1A3F0AA3
S113167001501109C214D30494F627960FB6F894B6
S1131680DEBF0FBECDBFDF91CF911F910F91FF90B1
S1131690EF90DF90CF90BF90AF909F908F907F900E
S11316A06F905F904F903F902F9008955058BB27B4
S11316B0AA270ED0E0C0D1D030F0D6D020F031F43B
S11316C09F3F11F41EF4C6C00EF4E095E7FBBCC0C6
S11316D0E92FE2D080F3BA176207730784079507EE
S11316E018F071F49EF5FAC00EF4E0950B2EBA2FA3
S11316F0A02D0B01B90190010C01CA01A001112414
S1131700FF27591B99F0593F50F4503E68F11A16BF
S1131710F040A22F232F342F4427585FF3CF469550
S113172037952795A795F0405395C9F77EF41F1672
S1131730BA0B620B730B840BBAF09150A1F0FF0F3C
S1131740BB1F661F771F881FC2F70EC0BA0F621F28
S1131750731F841F48F4879577956795B795F79518
S11317609E3F08F0B3CF9395880F08F09927EE0FAA
S113177097958795089598D088F09F5790F0B92F42
S11317809927B751A0F0D1F0660F771F881F991FD2
S11317901AF0BA95C9F712C0B13081F09FD0B1E008
S11317A008959CC0672F782F8827B85F39F0B93F18
S11317B0CCF3869577956795B395D9F73EF49095D4
S11317C08095709561957F4F8F4F9F4F0895E89452
S11317D009C097FB3EF490958095709561957F4F75
S11317E08F4F9F4F9923A9F0F92F96E9BB27939523
S11317F0F695879577956795B795F111F8CFFAF433
S1131800BB0F11F460FF1BC06F5F7F4F8F4F9F4F63
S113181016C0882311F096E911C0772321F09EE8C1
S1131820872F762F05C0662371F096E8862F70E027
S113183060E02AF09A95660F771F881FDAF7880F01
S11318409695879597F9089597F99F6780E870E0D2
S113185060E008959FEF80EC089500240A94161622
S1131860170618060906089500240A94121613068A
S1131870140605060895092E0394000C11F4882318
S113188052F0BB0F40F4BF2B11F460FF04C06F5F34
S11318907F4F8F4F9F4F089557FD9058440F551F0A
S11318A059F05F3F71F04795880F97FB991F61F0DE
S11318B09F3F79F087950895121613061406551F55
S11318C0F2CF4695F1DF08C0161617061806991FC1
S11318D0F1CF86957105610508940895E894BB27B6
S11318E066277727CB0197F9089511F40EF4B2CF48
S11318F03EC0DADFD0F39923D9F3CEF39F57550BCB
S113190087FF43D00024A0E640EA90018058569512
S1131910979528F4805C660F771F881F20F02617A0
S11319203707480730F4621B730B840B20293129D5
S11319304A2BA69517940794202531254A2758F752
S1131940660F771F881F20F026173707480730F4E3
S1131950620B730B840B200D311D411DA09581F783
S1131960B901842F9158880F9695879508959F3FC4
S113197031F0915020F4879577956795B795880F46
S1131980911D9695879597F9089591505040660F4B
S1131990771F881FD2F7089597FB072E16F400943B
S11319A006D077FD08D00BD007FC05D03EF4909507
S11319B081959F4F0895709561957F4F0895AA1B57
S11319C0BB1B51E107C0AA1FBB1FA617B70710F026
S11319D0A61BB70B881F991F5A95A9F78095909558
S11319E0BC01CD010895BB274A3031F4992322F478
S11319F0BDE2909581959F4F01C0BB27FB01552700
S1131A00AA27880F991FAA1FA41710F0A41B839557
S1131A105051B9F7A05DAA3308F0A95DA1930097CE
S1131A2079F7B111B1931192CB0100C0DC01FC0133
S1131A30672F71917723E1F7329704C07C916D93FE
S1131A4070836291AE17BF07C8F30895F894FFCF6F
S1131A501000100010001400010003000200010037
S1131A6028032E0334033A03040014003E034803FE
S1131A7051035A0368036F037D03880300000000C9
S1131A800000004F00000007000700147F147F14BB
S1131A90242A7F2A122313086462364955225000EF
S1131AA005030000001C2241000041221C00140810
S1131AB03E081408083E08080050300000080808D2
S1131AC00808006060000020100804023E514945E7
S1131AD03E00427F400042615149462141454B311D
S1131AE01814127F1027454545393C4A49493001AD
S1131AF0710905033649494936064949291E003604
S1131B003600000056360000081422410014141454
S1131B101414004122140802015109063249794182
S1131B203E7E1111117E7F494949363E4141412291
S1131B307F4141221C7F494949417F090909013EEE
S1131B404149497A7F0808087F00417F41002040CD
S1131B50413F017F081422417F404040407F020CF6
S1131B60027F7F0408107F3E4141413E7F090909FD
S1131B70063E4151215E7F091929462649494932C9
S1131B8001017F01013F4040403F1F2040201F3F93
S1131B904038403F63140814630708700807615114
S1131BA0494543007F41410002040810200041419F
S1131BB07F0004020102044040404040000102044E
S1131BC00020545454787F484444383844444420D2
S1131BD0384444487F3854545418087E0901020C90
S1131BE05252523E7F0804047800047D00002040D5
S1131BF0443D007F1028440000417F40007C0418CD
S1131C00047C7C0804047838444444387C14141458
S1131C1008081414187C7C080404084854545420FC
S1131C20043F4440203C4040207C1C2040201C3C7D
S1131C304030403C44281028440C5050503C4464EC
S1131C40544C44000836410000007700000041363F
S1131C5008000804081008430058006D6F64653AD2
S1131C600073656C6563747C4F4B7C006261636BCD
S1131C70002743206F7574006465666C740077698F
S1131C806E647700636F6F6C72006D616E00312E4D
S1131C9044656661756C7400322E57696E646F77A3
S1131CA000332E436F6F6C657200312E74656D7056
S1131CB06572617475726500322E6D6F6465004DD6
S1131CC061696E2046756E6374696F6E0053657446
S1131CD02054617267657400536574204D6F6465A8
S1051CE00000FE
S9030000FC
